:1000000031C0FECFFDCFFCCFFBCFFACFF9CFF8CF79
:10001000F7CFF6CFF5CFF4CFF3CFF2CFF1CFF0CFCC
:10002000EFCFEECFEDCF206E203D2025642C205465
:10003000203D2025302E32662563432C2056203D5E
:100040002025302E32660D0A00002D4E414E000054
:1000500001002D4E414E00494E4600000100600156
:1000600050000000F894EE27ECBBF1E0FBBFEBBFC3
:10007000E5BF8DE0A2E0BB27ED938A95E9F780E02C
:1000800094E0A0E6ED930197E9F7ECE5F0E08591C7
:100090009591009761F0A591B59105901590BF01DC
:1000A000F00105900D920197E1F7FB01F0CFEFE52C
:1000B000EDBFE4E0EEBFC0E6D1E00DC0AA93E88159
:1000C000E7B985E38A95F1F7369A349BFECF349AE7
:1000D000E4B1F5B169C02C97E0E0E7BBE8BBE4BB55
:1000E000E5BBE1BBE2BBE3BFE2BFEFBDEEBDEDBDF3
:1000F000ECBDE7BDE6BDEBBDEABDE9BDE8BDE2BDD7
:10010000E5BDE4BDE3BDE9BFE5BFEBB9E8E0EAB9B1
:10011000E6E8E0BDE0E0E0BDE7E6E9B9E0E8E8B93F
:10012000E0E0E7B9E4E8E6B9E0E0E0BFEDB9E6BF5A
:10013000E3E2F5EB63E07FE3E887F9876A877B8793
:10014000A6E0BCDF8F01A2D3DF01CB01E0E0F0EC41
:100150006FE774E4FBD59DD3F801E050F24096D3ED
:10016000A885B9858A859B8596D3E6E2F0E099D388
:10017000F80163D6D4D698D3D2D6E0EBF0E060E0B5
:1001800070E0CDD6EE85FF8568897989C8D680E193
:1001900076D26296A4EFB1E08BD4D2CFFFCFAA93F0
:1001A0005D9BFECFE881ECB92196089582D3AA81A8
:1001B000F6DFA881B98180D32396089583D3E0E840
:1001C000EA83EFE3EB83C8D6EE85FF85EF3FAFEF21
:1001D000FA0739F4E885F98564D3AAE4B0E06DD272
:1001E0007BC0EF3FAFE7FA0731F472D35AD3ABE4E9
:1001F000B0E063D271C0AB85A73010F0E6E0EB87CA
:100200001B8569D311F06BD3FCCF72D39FD619F441
:1002100030E065D31BC03B8570D309F008F407C0FC
:100220005ED36BD318F073D377D3FBCF08C065D3FD
:1002300028F46DD37CD381D33150F9CF50D358D328
:1002400081D37BD35AD310F062D366D310E0EB8511
:10025000E11710F17DD381D375D3DF01CB0180D2BB
:10026000EC83FD836E837F8352D370D55ED40E2FD3
:100270007AD380D3FF276627772790D469D318D500
:1002800046D357D6BED459D3E12F1F5FE030F9F6DD
:100290006AD3EEE2EC93DBCF72D33197AA85A083C9
:1002A00030302CF43195A885B985EDE203C0A885DE
:1002B000B985EBE2EC9363D362D366D3D1D5E05D2D
:1002C000DB01EC935CD360D3F5D5E05DDB01EC930F
:1002D000A885B985E0E0EC9346D660960895E9D20A
:1002E000EF97619737D610E0FE01E85AFF4F019073
:1002F000F081E02DE887F987FE01EA5AFF4F01906F
:10030000F081E02DEE83FF8344D3E0E0F0E0ED9355
:10031000FC93DE01A45ABF4FCFD23197E4912E2F28
:10032000E03009F4A6C1E12FE03031F4253211F4B8
:1003300011E001C031D39CC1E130B9F4253211F490
:100340002BD395C112E0E0E0ED8B00E02D3211F4EB
:1003500001E08EC12B3219F4EBE2ED8B89C1203222
:1003600019F4E0E2ED8B84C102C0E23039F450E0D0
:1003700013E0203311F400687BC102C0E33091F434
:10038000203310F02A3308F007C0AAE05A9F502DFE
:10039000E22FE0535E0F6CC140E02E3211F414E006
:1003A00067C10FC0E43099F4203310F02A3308F00D
:1003B00008C00062AAE04A9F402DE22FE0534E0F92
:1003C00057C12C3619F4026015E052C103C0E53064
:1003D00009F04EC1E22FE33639F4E5D2EBD2E3D295
:1003E000A481AA93EED243C1E53411F0E53609F4B5
:1003F00002C0E636A9F5EBD2EFD27CD5F4D2F8D222
:10040000AD85AA2332F0AD89AB3241F0A03261F064
:1004100012C04AD257D3E7D2EDE2ED8B07FF04C0FA
:10042000ED89EA93CED207C0EE85FF853196E2D200
:100430003197AD89A08305FF46E0263639F434D2E2
:100440006ED54A93AB89BC899BD107C02DD267D5A5
:100450004A932A93AC89BD89B1DEB9D2CED216C0F7
:10046000E33721F4C5D2CED2C8D209C0E03799F41F
:10047000BFD2C8D2AE85BF8537D11E2F08600F7797
:10048000403011F0411708F001C0142F40E0E0E0C7
:10049000EC8B30E062C0E43611F0E93611F4046010
:1004A00002C0E53791F4EAE0EC8B01FF07C0E0E021
:1004B000FAEC6AE97BE3AAD21AE01FC0E0E1F7E2B6
:1004C00060E070E0A3D215E018C0E83511F40860D0
:1004D00003C0E83709F0CBC0E0E1EC8B01FF07C0B7
:1004E000E0E0F0E060E070E191D218E006C0E0E00A
:1004F000F0E160E070E08AD214E0403011F00F7754
:1005000001C041E001FF05C073D266D21496F2D457
:100510000EC002FF06C06CD25FD21496E7D48DD411
:1005200006C066D259D21496E1D466277727EA87A7
:10053000FB876C877D8702FF0FC0AD85AA232AF455
:10054000B3D16DD450D2EDE2ED8BED89E03019F0EE
:100550001F5F4F5F01C00B7F342F00FD13C01517C5
:1005600010F4351708F00EC007FF08C002FF04C0E2
:100570000B7F2D89115001C020E301C020E20CD275
:100580005150EDCF141780F4006102FF05C043D233
:1005900009F0515011504150E0E3EA9312D250302B
:1005A00009F051504150EECF312FEC89E030A9F4E1
:1005B000303091F003FF05C0EE85FF8525911AD2FA
:1005C00005C0AE85BF852D91AE87BF87E5D1503080
:1005D00009F051503150ECCF41C02FD246D42E2FCC
:1005E0002A3030F003FF02C0295C01C0295A01C043
:1005F000205D04FD1DC0213348F428D2A130E0E085
:10060000BE07E0E08E07E0E09E0709F40BC0431749
:1006100040F4531710F000FF01C00EC020E207FFA6
:1006200007C020E3006102FF03C0F5D109F051507B
:10063000B3D1503009F051503150FFD147D4D3D10C
:10064000EC8904D2FF27662777270FD4DFD1E8890A
:10065000F9896A897B897AD409F0BFCF00FF07C086
:10066000503029F05150E0E2EA93ABD1F9CF10E0DD
:1006700050CE8FD13BD475D4EF966F960895FF92EC
:10068000F82E26976BD4DE011496C5D38D01E0E0D9
:10069000EC83ED83EE83EF83DE011896BCD326D482
:1006A00000D11A930A93E6EDF0E0FBD0DE01189634
:1006B00016DE5BD42896FF900895FBD0E991F9915E
:1006C000A991B991CD0105900D920020E1F7FC01AF
:1006D0000895EFD0A991B991EE27FF276D91662378
:1006E00011F03196FBCF0895E4D0AA27BB27E991FA
:1006F000F9910590002011F01196FBCFFD010895AE
:1007000013D47B816A81F981E88177FB770F67FDDC
:100710007160972F9E5781F078F0983190F4AA2756
:10072000BB27882708948795B795A7959A95D1F701
:10073000EA23FB23682305C0E8947727EE27FF27E9
:1007400066276F77769508F4606877F9A991B99173
:1007500089919991EA17FB076807790797FB089534
:10076000E3D3D3D3CDDF95D011F475D107C0EEF725
:1007700072D1A0E0B0E080E89FE343D224960895D0
:10078000A1D0E0E0EA83EFE3EB83E8D3EB85FC85DF
:10079000EF3FAFEFFA0729F460D1A2E5B0E08DDFBB
:1007A00072C0EF3FAFE7FA0729F457D1A3E5B0E0F5
:1007B00084DF69C0AC85AA2332F452D183D155D1EC
:1007C00059D1EDE2EC93A885A73010F0E6E0E88778
:1007D000188581D021F054D1C0D057D1FACF5AD149
:1007E00017D243D110E0E0E0F0E060E87FE34DD1C4
:1007F00051D1F1D260F044D19AD047D11F5F173266
:1008000028F02BD1A7E5B0E058DF3DC0F1CF103084
:1008100021F430D1E0E3EC9318C05DD0B1F030D1D9
:100820009CD090D0DF01CB019BDF2FD133D18ED272
:100830007CD10E2F1FD19ED0F0E022D127D038D20C
:1008400032D177D3DED111D1E8CFE885E030B9F0ED
:1008500011D1EEE2EC93E885E150E887EF5F79F0A3
:1008600022D165D002D1FCD060D10E2F03D182D02D
:10087000F0E019D10BD05DD3C4D1F7D0ECCFAE816D
:10088000BF81E0E0EC9371D32D960895D6D286D146
:10089000089540D308950CD2EC83FD836E837F834B
:1008A0000895FA93EA930895EA85FB856C857D8522
:1008B0000895BA93AA930895ED91FD913196FE9310
:1008C000EE930895F6DF2497E0E0E883E983089546
:1008D000E885F9850895E12F1150E0300895AC8145
:1008E000BD818E819F81E0E0F0E060E271E4D3CFD2
:1008F000EC85FD856E857F850895EC81FD816E8197
:100900007F81AC85BD858E859F8565D20895AC8538
:10091000BD858E859F850895EDECFCEC6CEC7DE348
:10092000C7D1EC87FD876E877F873F5F0895E0E042
:10093000F0E060E271E4BCD10895EC87FD876E873A
:100940007F870895A0E0B0E080E09FE361D1089543
:10095000AC81BD818E819F810895EDECFCEC6CEC47
:100960007DE3A6D10895A885B9851196A887B98792
:1009700011970895E02FE05DEC93E02F0895A8DF34
:100980003196E887F98708953197BF01A32FEAE0F0
:100990000895AE81BF8108952A93AF81B885E98516
:1009A000FA8509950895FE01E65AFF4F0190F081FE
:1009B000E02D08953497DE01A65ABF4FED93FC93C6
:1009C0000895AF81B885E985FA8509950895FE01F6
:1009D0007696EE87FF870895DE01A65ABF4F0D90E9
:1009E000BC91A02D0895EA87FB876C877D870895C9
:1009F000DADFE0CFEE87FF870895AE85BF8569DE39
:100A00001E2F0895E9DF149671D2F4CFE88BF98B8D
:100A10006A8B7B8B08950B7FED89EA93DE01A95ADF
:100A2000BF4F0D90BC91A02DFE01E75AFF4F0190E2
:100A3000F081E02D099550300895E889F9896A8997
:100A40007B89AA85BB858C859D850895A889B989F0
:100A50008A899B89089554D20895EE81FF8121CF20
:100A6000E985FA856B857C850895E987FA876B8728
:100A70007C8708958EDF1196AE83BF83119708950A
:100A8000AA81BB818C819D810895EA83FB836C835D
:100A90007D830895EA81FB816C817D81A985BA857A
:100AA0008B859C850895A985BA858B859C8508953D
:100AB000109639F080EA9FE00197F1F7A895119719
:100AC000C9F7089530976040704009F07058089554
:100AD000552342F4503811F4E0FF04C03196691FE9
:100AE000791F6BF050E8572711F45F93CFC05F3F39
:100AF00031F0660F000C57956795752F08955F9339
:100B000000200AF0CFC0C8C050E8192E1522880F67
:100B1000991F9527550F879550E8072E0522660FD8
:100B2000771F7527550F67950895689401C0E8945D
:100B30005F93F2DF703818F07F3F08F4A7C056E1EA
:100B4000571BAAF4519558300EF4593030F0EFEF9E
:100B5000FFEF6FEF7FE777F91AC077275523B9F0DA
:100B6000EE0FFF1F661F771F5A95D1F710C077272A
:100B7000583028F0EF2FF62F672F5850F9CF552314
:100B800031F076956795F795E7955A95D1F700205E
:100B90000AF445D15F910895689401C0E8943097B4
:100BA00060407040B1F0002426F0772312F40094E6
:100BB00036D1172E7EE1112032F07A95EE0FFF1F0D
:100BC000661F111CF9CFEF2FF62F612D5F938ADF7F
:100BD0005F9108954F93AF01FD01DA01AB01BC01B4
:100BE000CA01402D012C142E4F910895EA0FFB1FCE
:100BF000681F0895E095F0956095EF5FFF4F6F4F88
:100C000008955F9381DF903871F150E8152604C094
:100C10005F937ADF903839F1703821F1572F591BE3
:100C20002BF112F4D7DFFACF583118F0AA27BB27DF
:100C30008827583028F0AB2FB82F88275850F9CF85
:100C4000552329F08695B795A7955A95D9F7502D34
:100C5000512572F0CBDF38F46795F795E7957395DA
:100C600013F420C0B7DF3EDF5F910895D8F7FBCFC4
:100C7000EA1BFB0B680B51F010F40094BBDF6623FA
:100C800092F3EE0FFF1F661F7A95CBF7EE27FF2733
:100C9000662777275F910895EFEFFFEF6FE77FEF0C
:100CA0005F910895EFEFFFEF6FE77FE75F910895A2
:100CB0005F932ADF703851F3903841F30124089490
:100CC000791F23F41CF300203AF3ECCF0F921F930B
:100CD0002F933F934F93112722279927689FA001B5
:100CE0008F9F302D410D591F6B9F300D411D591F96
:100CF0008E9F27D0BF9F25D06A9F23D0BE9F1DD037
:100D0000AF9F1BD0AE9F110D291F391F491F591FBF
:100D1000E32FF42F652F522F4F913F912F911F9169
:100D20000F9066232AF0550FEE1FFF1F661F02C0AB
:100D300073954BF2CDDE5F910895100D211D391F83
:100D400002C0200D311D491F591F08955F93DCDE3D
:100D5000703821F411200AF49FCFA4CF903809F401
:100D600095CF01240894970B1BF4D4F30020F3CF04
:100D7000792F1F932F933F934F93112411272227ED
:100D800033274427552790E2AE17BF078607410750
:100D900030F0AE1BBF0B860B410B089401C088944A
:100DA000551F221F331F111CAA1FBB1F881F441F62
:100DB0009A9551F7F901612D4F913F912F911F9114
:100DC000662332F0550FEE1FFF1F661F7A9543F220
:100DD0007FDE5F91089599239AF0772342F0971769
:100DE00048F029F4AE17BF07860720F031F0989439
:100DF0008894089598940894089518948894089570
:100E00007723C2F7971798F3A9F7EA17FB07680744
:100E100088F399F3ECCF0024AF0DB01D0895F09541
:100E200060957095E195FF4F6F4F7F4F0895FE2FAE
:100E3000FF0FFF0B6F2F7F2F08956F2F660F660B2D
:100E4000762F0895002498E0AA0F001C0E1A10F4C3
:100E50000E0E01C0A1609A95B9F7EA2FA02D089552
:100E600039D0F0DF0EF4E19508953F934F935F93EF
:100E7000002411244427552730E2AA0FBB1F881FE6
:100E8000991F001C111C441F551F0E1A1F0A460BE8
:100E9000570B28F40E0E1F1E461F571F01C0A160DE
:100EA0003A9559F7FD01BC01D001CA015F914F91FC
:100EB0003F910895E894A7FF02C0A1956894E7FDCB
:100EC000E195C0DFEA2F0EF4E1950895CEDFFD0134
:100ED000BC010895E894E7FF02C0E1956894A7FF7C
:100EE00004C0A19500F8039400FA0895ED91FC91D7
:100EF00011970895ED91FD916D917C91139708954F
:100F0000E881F9816A817B810895A881B9818A810C
:100F10009B810895E883F9836A837B8308957A939C
:100F20006A93FA93EA9308959A938A93BA93AA9349
:100F30000895182E862F612D192E972F712D1B2E97
:100F4000BF2FF12D1A2EAE2FE12D0895309760405E
:100F5000704008955A934A933A932A931A930A93A6
:100F600008955D814C813B812A8119810881089512
:00000001FF
